:100000000C9434000C9451000C9451000C94510049
:100010000C9451000C9451000C9451000C9451001C
:100020000C9451000C9451000C9451000C9451000C
:100030000C9451000C9451000C940F010C9451003D
:100040000C9451000C9451000C9451000C945100EC
:100050000C9451000C9451000C9451000C945100DC
:100060000C9451000C94510011241FBECFEFD8E026
:10007000DEBFCDBF11E0A0E0B1E0ECECF5E002C0E6
:1000800005900D92A230B107D9F721E0A2E0B1E0CE
:1000900001C01D92A430B207E1F70E9439010C940F
:1000A000E4020C94000085B185B984B18E6184B9F5
:1000B000E0E8F0E0808183648083E1E8F0E0808123
:1000C00088618083ECE7F0E0808185608083EAE7E7
:1000D000F0E08081856E8083EBE7F0E080818360D3
:1000E000808384B5836084BD85B5886085BDEEE678
:1000F000F0E08081826080838FEF87BD089520E0EB
:1001000030E01AC085B18C6185B94FEF84E39CE083
:10011000415080409040E1F700C0000085B1837EEF
:1001200085B94FEF84E39CE0415080409040E1F777
:1001300000C000002F5F3F4F233031051CF30895AE
:1001400085B5856085BD089585B1837E85B9E1E873
:10015000F0E080818E7F80830895CF92DF92EF92CE
:10016000FF92CF93DF93C0910201D09103018C1BCA
:100170009D0BBC01990F880B990B0E94EB016B0141
:100180007C0160910001709101016C1B7D0B072EB9
:10019000000C880B990B0E94EB019B01AC01C7017D
:1001A000B6010E94410120E030E048EC52E40E9498
:1001B00077020E94B3016A31710554F1633371050E
:1001C00024F485B1846085B923C06C3471057CF456
:1001D00085B1886085B9E1E8F0E080818160808345
:1001E0008FEF9FE0909389008093880011C065365F
:1001F000710574F485B1806185B9E1E8F0E0808132
:10020000816080838FEF9EE09093890080938800C7
:10021000DF91CF91FF90EF90DF90CF9008951F92E4
:100220000F920FB60F9211242F933F934F935F932A
:100230006F937F938F939F93AF93BF93EF93FF93AE
:100240000E94A40080917800909179000E94AD00F6
:10025000FF91EF91BF91AF919F918F917F916F919E
:100260005F914F913F912F910F900FBE0F901F9074
:1002700018950E9453000E947F000E94A00078946D
:10028000FFCF0E9455010C943D020E94360258F0A7
:100290000E942F0240F029F45F3F29F00C942602BF
:1002A00051110C9471020C942C020E944E0268F3BE
:1002B0009923B1F3552391F3951B550BBB27AA271F
:1002C00062177307840738F09F5F5F4F220F331F59
:1002D000441FAA1FA9F335D00E2E3AF0E0E832D021
:1002E00091505040E695001CCAF72BD0FE2F29D024
:1002F000660F771F881FBB1F261737074807AB07F6
:10030000B0E809F0BB0B802DBF01FF2793585F4F6A
:100310003AF09E3F510578F00C9426020C9471023D
:100320005F3FE4F3983ED4F3869577956795B7954C
:10033000F7959F5FC9F7880F911D9695879597F957
:100340000895E1E0660F771F881FBB1F62177307D0
:100350008407BA0720F0621B730B840BBA0BEE1FE5
:1003600088F7E09508950E94BA016894B1110C9441
:10037000710208950E94560288F09F5798F0B92F95
:100380009927B751B0F0E1F0660F771F881F991FCA
:100390001AF0BA95C9F714C0B13091F00E947002FA
:1003A000B1E008950C947002672F782F8827B85F0A
:1003B00039F0B93FCCF3869577956795B395D9F722
:1003C0003EF490958095709561957F4F8F4F9F4F2C
:1003D0000895E89409C097FB3EF490958095709538
:1003E00061957F4F8F4F9F4F9923A9F0F92F96E981
:1003F000BB279395F695879577956795B795F111F6
:10040000F8CFFAF4BB0F11F460FF1BC06F5F7F4F92
:100410008F4F9F4F16C0882311F096E911C07723A4
:1004200021F09EE8872F762F05C0662371F096E8AD
:10043000862F70E060E02AF09A95660F771F881F7C
:10044000DAF7880F9695879597F9089597F99F673A
:1004500080E870E060E008959FEF80EC089500244C
:100460000A941616170618060906089500240A9419
:1004700012161306140605060895092E0394000C9F
:1004800011F4882352F0BB0F40F4BF2B11F460FF2E
:1004900004C06F5F7F4F8F4F9F4F089557FD905857
:1004A000440F551F59F05F3F71F04795880F97FB38
:1004B000991F61F09F3F79F08795089512161306F2
:1004C0001406551FF2CF4695F1DF08C01616170621
:1004D0001806991FF1CF8695710561050894089556
:1004E000E894BB2766277727CB0197F908950E94E8
:1004F0008A020C943D020E942F0238F00E943602BC
:1005000020F0952311F00C9426020C942C02112457
:100510000C9471020E944E0270F3959FC1F3950FE7
:1005200050E0551F629FF001729FBB27F00DB11D77
:10053000639FAA27F00DB11DAA1F649F6627B00D07
:10054000A11D661F829F2227B00DA11D621F739FF0
:10055000B00DA11D621F839FA00D611D221F749FFE
:100560003327A00D611D231F849F600D211D822F45
:10057000762F6A2F11249F5750409AF0F1F088236C
:100580004AF0EE0FFF1FBB1F661F771F881F915099
:100590005040A9F79E3F510580F00C9426020C9420
:1005A00071025F3FE4F3983ED4F3869577956795A3
:1005B000B795F795E7959F5FC1F7FE2B880F911DC3
:0C05C0009695879597F90895F894FFCF61
:0205CC00BC026F
:0400000300000140B8
:00000001FF
